:040000000128FE2FA6
:100F8000383021009900980122009601080087312D
:100F9000CE2787318731C0278731080022008C0196
:100FA000173021008C00173023008C0024008C01A6
:100FB0002100951725008C01373026008C003F302A
:100FC00027008C0022009D0108008731C727873148
:100FD00020008C16A330F0005530890BED2FF00B5C
:100FE000ED2F000020008C12A330F0005530890B4B
:100FF000F72FF00BF72F0000E82F01282000E52F36
:020000040001F9
:06000E00FC3FFF3E9F3F96
:00000001FF
