:040000000128FE2FA6
:100F5400163021009700080032009101920193019C
:100F640094019501960108006230320099009B01BA
:100F74009D0103309F009E0108008731AE27873111
:100F84008731CC2787318731B62787318731AA2724
:100F94008731080022008C01173021008C001730A3
:100FA40023008C0024008C0125008C01373026009E
:100FB4008C003F3027008C0008008731BF27873121
:100FC40020008C160230F1004530F000AA30890B65
:100FD400E92FF00BE92FF10BE92F20008C120230DE
:100FE400F1004530F000AA30890BF62FF00BF62FF4
:0C0FF400F10BF62FE22F01282000DF2F68
:020000040001F9
:08000E00EC3FF33FFF3FFF3F11
:00000001FF
