:08000000803102288731FD2F39
:100F38004F0196019701980199019A019B010800B8
:100F4800623051018D008F019101023093009201AE
:100F5800080087319C2787318731D7278731873128
:100F6800A427873108008731AD278731400116143F
:100F78000230F1004530F000AA30890BC12FF00B88
:100F8800C12FF10BC12F400116100230F10045307E
:100F9800F000AA30890BCE2FF00BCE2FF10BCE2FFD
:100FA800BA2F803102284001960197019801FE303E
:100FB8009100FF309200FF309300FF307E01CE0099
:100FC800FF30C300FE30B800E501C401B901CF010C
:100FD800BA01C501D001FF30BB00FF30C600FF30A9
:100FE800D100FF30BC00FF30C700FF30D200E8015D
:080FF800080040018731B72F0A
:020000040001F9
:0A000E00EC3FFF3F9F3FFF3FFF3F25
:00000001FF
