:040000000128FE2FA6
:100F7A00163021009700080038302100990022001D
:100F8A00960108008731D12787318731C1278731F8
:100F9A008731BD278731080022008C018E011F305E
:100FAA0021008C003F308E000F3023008E00173056
:100FBA008C0024008C012100951722009D01080055
:100FCA008731C727873122008C16A330F0005530AD
:100FDA00890BED2FF00BED2F000022008C12A330AD
:100FEA00F0005530890BF72FF00BF72F0000E82F90
:060FFA0001282000E52F94
:020000040001F9
:04000E00E43FFF3F8D
:00000001FF
